S0190000536D6172745F486F6D655F4D61737465722E7372656351
S11300000C942A000C9447000C9447000C9447006D
S11300100C9447000C9447000C9447000C94A602DF
S11300200C9447000C9447000C9447000C94470030
S11300300C9447000C9447000C9447000C94470020
S11300400C9447000C9447000C9447000C94470010
S11300500C94470011241FBECFE5D8E0DEBFCDBF0E
S113006010E0A0E6B0E0E2E6F6E002C005900D92F2
S1130070AA3BB107D9F720E0AAEBB0E001C01D927A
S1130080AE3BB207E1F70E944D020C942F030C948F
S11300900000982F9770869586958695813021F17A
S11300A030F08230F1F1833009F458C008956130A2
S11300B069F44BB321E030E0B90102C0660F771F49
S11300C09A95E2F7CB01842B8BBB08954BB321E0C7
S11300D030E0B90102C0660F771F9A95E2F7CB01B1
S11300E0809584238BBB0895613069F448B321E083
S11300F030E0B90102C0660F771F9A95E2F7CB0191
S1130100842B88BB089548B321E030E0B90102C0D4
S1130110660F771F9A95E2F7CB018095842388BBFD
S11301200895613069F445B321E030E0B90102C0BB
S1130130660F771F9A95E2F7CB01842B85BB089550
S113014045B321E030E0B90102C0660F771F9A95EC
S1130150E2F7CB018095842385BB0895613069F46F
S113016042B321E030E0B90102C0660F771F9A95CF
S1130170E2F7CB01842B82BB089542B321E030E047
S1130180B90102C0660F771F9A95E2F7CB018095FB
S1130190842382BB0895E0E6F0E080E041E050E093
S11301A0282F2770982F969596959695913009F15A
S11301B030F09230C1F1933009F44FC067C09081A0
S11301C0913059F49AB3BA0102C0660F771F2A9589
S11301D0E2F79B01292B2ABB59C03AB3BA0102C0EA
S11301E0660F771F2A95E2F7962F909593239ABB73
S11301F04DC09081913059F497B3BA0102C0660F93
S1130200771F2A95E2F79B01292B27BB3FC037B301
S1130210BA0102C0660F771F2A95E2F7962F9095D0
S1130220932397BB33C09081913059F494B3BA01AE
S113023002C0660F771F2A95E2F79B01292B24BB86
S113024025C034B3BA0102C0660F771F2A95E2F7BE
S1130250962F9095932394BB19C09081913059F4B3
S113026091B3BA0102C0660F771F2A95E2F79B018A
S1130270292B21BB0BC031B3BA0102C0660F771F13
S11302802A95E2F7962F9095932391BB8F5F329630
S1130290803209F085CF0895CF93C82F8BB38F7028
S11302A09C2F907F892B8BBB60E081E00E944900EA
S11302B061E083E00E9449008FE891E00197F1F743
S11302C000C0000060E083E00E9449008FE19EE4EA
S11302D00197F1F700C000008BB3282F2F7030E195
S11302E0C39FC0011124822B8BBB60E081E00E947C
S11302F0490061E083E00E9449008FE891E00197A2
S1130300F1F700C0000060E083E00E9449008FE341
S11303109FE10197F1F700C00000CF91089560E0DC
S113032082E00E9449002FEF89EF90E02150804045
S11303309040E1F700C0000083E30E944C018FE18C
S113034093E00197F1F700C0000082E30E944C01A2
S113035088E20E944C0186E00E944C018CE00E94DD
S11303604C0181E00E944C018FE39FE10197F1F77A
S113037000C0000080E80E944C010895CF93C82F6C
S11303808BB38F709C2F907F892B8BBB61E081E0B6
S11303900E94490061E083E00E9449008FE891E0F7
S11303A00197F1F700C0000060E083E00E9449007B
S11303B08FE19EE40197F1F700C000008BB3282F72
S11303C02F7030E1C39FC0011124822B8BBB61E0ED
S11303D081E00E94490061E083E00E9449008FE8C7
S11303E091E00197F1F700C0000060E083E00E9413
S11303F049008FE39FE10197F1F700C00000CF911E
S113040008950F931F93CF93FC018081882359F0A3
S11304108F01C0E00E94BE01CF5FF801EC0FF11D17
S113042080818111F7CFCF911F910F910895CF93C0
S1130430DF93EC01613019F0623051F011C0842F68
S11304408F7080680E944C01CE010E94010208C096
S1130450842F8F70806C0E944C01CE010E94010297
S1130460DF91CF910895CF93C82F613019F0623096
S113047051F011C0842F8F7080680E944C018C2F22
S11304800E94BE0108C0842F8F70806C0E944C01B2
S11304908C2F0E94BE01CF9108950E94CB000E9430
S11304A08F010E94230380E090E00E940603C49819
S11304B080EA90E00E94010240E062E08BEA90E072
S11304C00E9417028DE08EBD80E189BF80E48FBD5C
S11304D089E09DE39BBD8ABD789484E40E941F0358
S11304E02FEF83EC99E0215080409040E1F700C069
S11304F0000081E20E941A038093BB002FEF83EC7B
S113050099E0215080409040E1F700C0000082E271
S11305100E941A038093BA008091BB004DE062E010
S11305200E9433028091BA004EE062E00E943302DE
S11305300E942B030E941F032FEF89E698E12150AC
S113054080409040E1F700C00000F2CF1F920F926C
S11305500FB60F9211242F933F934F935F936F9392
S11305607F938F939F93AF93BF93EF93FF93809168
S1130570BC009091BD0001969093BD008093BC0097
S11305808091BC009091BD000A9778F184E40E94A8
S11305901F032FEF83EC99E0215080409040E1F756
S11305A000C0000081E20E941A038093BB002FEF79
S11305B083EC99E0215080409040E1F700C00000B6
S11305C082E20E941A038093BA001092BD00109236
S11305D0BC008091BB004DE062E00E943302809138
S11305E0BA004EE062E00E943302FF91EF91BF91A6
S11305F0AF919F918F917F916F915F914F913F91B7
S11306002F910F900FBE0F901F901895882319F00B
S1130610813051F0089587B3806B87BBBE98C49A2C
S11306208DB182658DB9089587B38F7487BBBE9AE7
S11306306E9A08958FB9779BFECF8FB108958FB9C5
S1130640779BFECF089588E18AB986E880BD87E666
S113065089B910BC08955F9BFECF8CB10895F894BE
S1050660FFCFC6
S11306620101010101010101010101010101010174
S11306720101010101010101010101010001010165
S11306820101010101010101010101010101010154
S1130692000100010101010100000000000000004E
S11306A257656C636F6D65203A290054656D7065FA
S10D06B27261747572653A2000004D
S9030000FC
