:100000000C942A000C943F000C943F000C943F0089
:100010000C943F000C943F000C943F000C943F0064
:100020000C943F000C943F000C943F000C943F0054
:100030000C943F000C943F000C943F000C943F0044
:100040000C943F000C943F000C943F000C943F0034
:100050000C943F0011241FBECFE5D8E0DEBFCDBF1A
:1000600010E0A0E6B0E0E0E7F6E002C005900D92F7
:10007000AC3EB107D9F70E945B020C9436030C9496
:10008000000087B1806C87B986B18F6886B9089502
:1000900097B1907E8F71892B87B9369A349BFECFAA
:1000A000349A84B125B190E0922B089584B3806690
:1000B00084BB8D9A88EC90E09BBD8ABD81E88FBDA2
:1000C0008BE08EBD0895823429F0863429F4AD9AF0
:1000D000AE980895AE9AAD980895982F977086952A
:1000E00086958695813021F130F08230F1F18330B0
:1000F00009F458C00895613069F44BB321E030E051
:10010000B90102C0660F771F9A95E2F7CB01842BE5
:100110008BBB08954BB321E030E0B90102C0660FFC
:10012000771F9A95E2F7CB01809584238BBB0895C6
:10013000613069F448B321E030E0B90102C0660FD4
:10014000771F9A95E2F7CB01842B88BB089548B3BB
:1001500021E030E0B90102C0660F771F9A95E2F7FF
:10016000CB018095842388BB0895613069F445B341
:1001700021E030E0B90102C0660F771F9A95E2F7DF
:10018000CB01842B85BB089545B321E030E0B90154
:1001900002C0660F771F9A95E2F7CB018095842302
:1001A00085BB0895613069F442B321E030E0B901C4
:1001B00002C0660F771F9A95E2F7CB01842B82BBB2
:1001C000089542B321E030E0B90102C0660F771F05
:1001D0009A95E2F7CB018095842382BB0895E0E6EF
:1001E000F0E080E041E050E0282F2770982F9695AE
:1001F00096959695913009F130F09230C1F1933097
:1002000009F44FC067C09081913059F49AB3BA0194
:1002100002C0660F771F2A95E2F79B01292B2ABBA4
:1002200059C03AB3BA0102C0660F771F2A95E2F7A8
:10023000962F909593239ABB4DC09081913059F49D
:1002400097B3BA0102C0660F771F2A95E2F79B01A8
:10025000292B27BB3FC037B3BA0102C0660F771FF7
:100260002A95E2F7962F9095932397BB33C0908100
:10027000913059F494B3BA0102C0660F771F2A95E2
:10028000E2F79B01292B24BB25C034B3BA0102C07D
:10029000660F771F2A95E2F7962F9095932394BBCC
:1002A00019C09081913059F491B3BA0102C0660F20
:1002B000771F2A95E2F79B01292B21BB0BC031B395
:1002C000BA0102C0660F771F2A95E2F7962F909524
:1002D000932391BB8F5F3296803209F085CF0895CA
:1002E000CF93C82F8BB38F709C2F907F892B8BBBA4
:1002F00060E081E00E946D0061E083E00E946D009B
:100300008FE891E00197F1F700C0000060E083E022
:100310000E946D008FE19EE40197F1F700C000009C
:100320008BB3282F2F7030E1C39FC0011124822B83
:100330008BBB60E081E00E946D0061E083E00E9481
:100340006D008FE891E00197F1F700C0000060E0D8
:1003500083E00E946D008FE39FE10197F1F700C0F9
:100360000000CF91089560E082E00E946D002FEFC1
:1003700089EF90E0215080409040E1F700C00000FC
:1003800083E30E9470018FE193E00197F1F700C0D1
:10039000000082E30E94700188E20E94700186E002
:1003A0000E94700188E10E9470018CE00E9470013F
:1003B00081E00E9470018FE39FE10197F1F700C097
:1003C00000000895CF93C82F8BB38F709C2F907F20
:1003D000892B8BBB61E081E00E946D0061E083E0CE
:1003E0000E946D008FE891E00197F1F700C00000D6
:1003F00060E083E00E946D008FE19EE40197F1F7D9
:1004000000C000008BB3282F2F7030E1C39FC001C4
:100410001124822B8BBB61E081E00E946D0061E0C2
:1004200083E00E946D008FE891E00197F1F700C032
:10043000000060E083E00E946D008FE39FE1019780
:10044000F1F700C00000CF9108950F931F93CF9351
:10045000FC018081882359F08F01C0E00E94E201F5
:10046000CF5FF801EC0FF11D80818111F7CFCF91A3
:100470001F910F910895CF93DF93EC01613019F034
:10048000623051F011C0842F8F7080680E9470011B
:10049000CE010E94250208C0842F8F70806C0E94BC
:1004A0007001CE010E942502DF91CF91089581E075
:1004B0000E9470010895CF93DF9300D0CDB7DEB7CF
:1004C0000E94EF000E94B3010E9441000E9456006A
:1004D000A79A81E090E00E94E2020E94FD022FEFC5
:1004E00031EE94E0215030409040E1F700C0000030
:1004F0008333D9F028F4813341F0823371F0EDCFAA
:10050000843329F18434A9F1E8CFAF9A0E945702CD
:1005100080EA90E00E942502E0CFAF980E94570247
:1005200089EA90E00E942502D8CF86E40E94630009
:100530000E94570240E061E083EB90E00E943B02A2
:1005400040E062E08FEB90E00E943B02C6CF82E485
:100550000E9463000E94570240E061E083EB90E05C
:100560000E943B0240E062E08BEC90E00E943B0284
:10057000B4CF80E00E9448004AE0BE016F5F7F4F29
:1005800096958795969587950E94010389810E948B
:10059000F802813271F40E94570240E061E088ED78
:1005A00090E00E943B0240E062E080EE90E00E941A
:1005B0003B028A810E94F802823209F08ECF0E94AB
:1005C00057028BCF882319F0813051F0089587B3FB
:1005D000806B87BBBE98C49A8DB180658DB9089534
:1005E00087B38F7487BBBE9A8DB182648DB908952D
:1005F0008FB9779BFECF8FB10895779BFECF8FB1D8
:100600000895BB274A3031F4992322F4BDE2909536
:1006100081959F4F0C940D03BB27FB015527AA27FB
:10062000880F991FAA1FA41710F0A41B839550517F
:10063000B9F7A05DAA3308F0A95DA193009779F7F7
:10064000B111B1931192CB010C942603DC01FC0192
:10065000672F71917723E1F7329704C07C916D93F6
:1006600070836291AE17BF07C8F30895F894FFCF67
:10067000000101010101010101010101010101016B
:10068000000101010101010100010001010100015E
:10069000010101010101010101010101010101014A
:1006A0000101010101010101000000000000000042
:1006B0004C69676874204F4E004C69676874204F1E
:1006C0004646004443204D6F746F72204F4E0046E3
:1006D0006F727761726420446972004261636B7764
:1006E000617264204469720052656164696E6700DA
:0C06F00054656D70657261747572650070
:00000001FF
